{
  "contractName": "Exchange",
  "abi": [
    {
      "inputs": [],
      "payable": false,
      "stateMutability": "nonpayable",
      "type": "constructor"
    },
    {
      "constant": false,
      "inputs": [
        {
          "name": "tokenAddress",
          "type": "address"
        },
        {
          "name": "amount",
          "type": "uint256"
        }
      ],
      "name": "participate",
      "outputs": [],
      "payable": false,
      "stateMutability": "nonpayable",
      "type": "function"
    }
  ],
  "bytecode": "0x608060405234801561001057600080fd5b5061002861002d640100000000026401000000009004565b6100ba565b60008060006101000a81548173ffffffffffffffffffffffffffffffffffffffff021916908373ffffffffffffffffffffffffffffffffffffffff1602179055506000600160006101000a81548173ffffffffffffffffffffffffffffffffffffffff021916908373ffffffffffffffffffffffffffffffffffffffff1602179055506000600281905550565b6105db806100c96000396000f300608060405260043610610041576000357c0100000000000000000000000000000000000000000000000000000000900463ffffffff168063b64afbe514610046575b600080fd5b34801561005257600080fd5b50610091600480360381019080803573ffffffffffffffffffffffffffffffffffffffff16906020019092919080359060200190929190505050610093565b005b60008073ffffffffffffffffffffffffffffffffffffffff168373ffffffffffffffffffffffffffffffffffffffff16141515156100d057600080fd5b6000821115156100df57600080fd5b8290508073ffffffffffffffffffffffffffffffffffffffff166323b872dd3330856040518463ffffffff167c0100000000000000000000000000000000000000000000000000000000028152600401808473ffffffffffffffffffffffffffffffffffffffff1673ffffffffffffffffffffffffffffffffffffffff1681526020018373ffffffffffffffffffffffffffffffffffffffff1673ffffffffffffffffffffffffffffffffffffffff1681526020018281526020019350505050602060405180830381600087803b1580156101b957600080fd5b505af11580156101cd573d6000803e3d6000fd5b505050506040513d60208110156101e357600080fd5b810190808051906020019092919050505015156101ff57600080fd5b600073ffffffffffffffffffffffffffffffffffffffff166000809054906101000a900473ffffffffffffffffffffffffffffffffffffffff1673ffffffffffffffffffffffffffffffffffffffff1614156102e257336000806101000a81548173ffffffffffffffffffffffffffffffffffffffff021916908373ffffffffffffffffffffffffffffffffffffffff16021790555082600160006101000a81548173ffffffffffffffffffffffffffffffffffffffff021916908373ffffffffffffffffffffffffffffffffffffffff160217905550816002819055506102f6565b6102ed3384846102fb565b6102f5610522565b5b505050565b600080600160009054906101000a900473ffffffffffffffffffffffffffffffffffffffff1691508390508173ffffffffffffffffffffffffffffffffffffffff1663a9059cbb866002546040518363ffffffff167c0100000000000000000000000000000000000000000000000000000000028152600401808373ffffffffffffffffffffffffffffffffffffffff1673ffffffffffffffffffffffffffffffffffffffff16815260200182815260200192505050602060405180830381600087803b1580156103cb57600080fd5b505af11580156103df573d6000803e3d6000fd5b505050506040513d60208110156103f557600080fd5b8101908080519060200190929190505050151561041157600080fd5b8073ffffffffffffffffffffffffffffffffffffffff1663a9059cbb6000809054906101000a900473ffffffffffffffffffffffffffffffffffffffff16856040518363ffffffff167c0100000000000000000000000000000000000000000000000000000000028152600401808373ffffffffffffffffffffffffffffffffffffffff1673ffffffffffffffffffffffffffffffffffffffff16815260200182815260200192505050602060405180830381600087803b1580156104d557600080fd5b505af11580156104e9573d6000803e3d6000fd5b505050506040513d60208110156104ff57600080fd5b8101908080519060200190929190505050151561051b57600080fd5b5050505050565b60008060006101000a81548173ffffffffffffffffffffffffffffffffffffffff021916908373ffffffffffffffffffffffffffffffffffffffff1602179055506000600160006101000a81548173ffffffffffffffffffffffffffffffffffffffff021916908373ffffffffffffffffffffffffffffffffffffffff16021790555060006002819055505600a165627a7a72305820eaf3a713c2ed128f4c2f576555c8dec0c5f579e3280e69fe7693c85f940c778e0029",
  "source": "pragma solidity ^0.4.18;\n\nimport \"openzeppelin-solidity/contracts/token/ERC20/ERC20.sol\";\n\ncontract Exchange {\n    address makerAccountAddress;\n    address makerTokenAddress;\n    uint256 makerTokenAmount;\n\n    constructor() public {\n        reset();\n    }\n\n    function participate(address tokenAddress, uint256 amount) public {\n        require(tokenAddress != address(0));\n        require(amount > 0);\n\n        ERC20 token = ERC20(tokenAddress);\n        require(token.transferFrom(msg.sender, address(this), amount));\n\n        if (makerAccountAddress == address(0)) {\n            makerAccountAddress = msg.sender;\n            makerTokenAddress = tokenAddress;\n            makerTokenAmount = amount;\n        } else {\n            exchange(msg.sender, tokenAddress, amount);\n            reset();\n        }\n    }\n\n    function exchange(\n        address takerAccountAddress, address takerTokenAddress,\n        uint256 takerTokenAmount\n    ) internal {\n        ERC20 makerToken = ERC20(makerTokenAddress);\n        ERC20 takerToken = ERC20(takerTokenAddress);\n\n        require(makerToken.transfer(takerAccountAddress, makerTokenAmount));\n        require(takerToken.transfer(makerAccountAddress, takerTokenAmount));\n    }\n\n    function reset() internal {\n        makerAccountAddress = address(0);\n        makerTokenAddress = address(0);\n        makerTokenAmount = 0;\n    }\n}\n",
  "sourcePath": "/Users/ihogeon/ethereum-dex/contracts/Exchange.sol",
  "compiler": {
    "name": "solc",
    "version": "0.4.23+commit.124ca40d.Emscripten.clang"
  },
  "schemaVersion": "2.0.0",
  "updatedAt": "2018-05-29T08:33:52.426Z"
}